{"abi":[{"type":"function","name":"STRIPE_BASE_URL","inputs":[],"outputs":[{"name":"","type":"string","internalType":"string"}],"stateMutability":"view"},{"type":"function","name":"main","inputs":[{"name":"webProof","type":"tuple","internalType":"struct WebProof","components":[{"name":"webProofJson","type":"string","internalType":"string"}]},{"name":"intentId","type":"string","internalType":"string"}],"outputs":[{"name":"","type":"tuple","internalType":"struct Proof","components":[{"name":"seal","type":"tuple","internalType":"struct Seal","components":[{"name":"verifierSelector","type":"bytes4","internalType":"bytes4"},{"name":"seal","type":"bytes32[8]","internalType":"bytes32[8]"},{"name":"mode","type":"uint8","internalType":"enum ProofMode"}]},{"name":"callGuestId","type":"bytes32","internalType":"bytes32"},{"name":"length","type":"uint256","internalType":"uint256"},{"name":"callAssumptions","type":"tuple","internalType":"struct CallAssumptions","components":[{"name":"proverContractAddress","type":"address","internalType":"address"},{"name":"functionSelector","type":"bytes4","internalType":"bytes4"},{"name":"settleChainId","type":"uint256","internalType":"uint256"},{"name":"settleBlockNumber","type":"uint256","internalType":"uint256"},{"name":"settleBlockHash","type":"bytes32","internalType":"bytes32"}]}]},{"name":"amountCollateralized","type":"int256","internalType":"int256"},{"name":"collateralizedForAddress","type":"address","internalType":"address"},{"name":"usedIntentId","type":"string","internalType":"string"}],"stateMutability":"view"},{"type":"function","name":"proof","inputs":[],"outputs":[{"name":"","type":"tuple","internalType":"struct Proof","components":[{"name":"seal","type":"tuple","internalType":"struct Seal","components":[{"name":"verifierSelector","type":"bytes4","internalType":"bytes4"},{"name":"seal","type":"bytes32[8]","internalType":"bytes32[8]"},{"name":"mode","type":"uint8","internalType":"enum ProofMode"}]},{"name":"callGuestId","type":"bytes32","internalType":"bytes32"},{"name":"length","type":"uint256","internalType":"uint256"},{"name":"callAssumptions","type":"tuple","internalType":"struct CallAssumptions","components":[{"name":"proverContractAddress","type":"address","internalType":"address"},{"name":"functionSelector","type":"bytes4","internalType":"bytes4"},{"name":"settleChainId","type":"uint256","internalType":"uint256"},{"name":"settleBlockNumber","type":"uint256","internalType":"uint256"},{"name":"settleBlockHash","type":"bytes32","internalType":"bytes32"}]}]}],"stateMutability":"pure"},{"type":"function","name":"setBlock","inputs":[{"name":"blockNo","type":"uint256","internalType":"uint256"}],"outputs":[],"stateMutability":"nonpayable"},{"type":"function","name":"setChain","inputs":[{"name":"chainId","type":"uint256","internalType":"uint256"},{"name":"blockNo","type":"uint256","internalType":"uint256"}],"outputs":[],"stateMutability":"nonpayable"},{"type":"error","name":"FailedInnerCall","inputs":[]}],"bytecode":{"object":"0x6080604052348015600f57600080fd5b5061139c8061001f6000396000f3fe608060405234801561001057600080fd5b50600436106100575760003560e01c8063095e73bc1461005c57806387cea3ae1461007a578063a09d0df31461008f578063faf924cf146100b2578063ffbc5638146100c7575b600080fd5b6100646100da565b6040516100719190610c4b565b60405180910390f35b61008d610088366004610c5e565b6100f6565b005b6100a261009d366004610c77565b6101c0565b6040516100719493929190610dee565b6100ba61037d565b6040516100719190610e27565b61008d6100d5366004610e36565b610392565b6040518060600160405280602a815260200161128f602a913981565b6040516343e751d760e11b8152600481018290527376dc9aa45aa006a0f63942d8f9f21bd4537972a3906387cea3ae906024016020604051808303816000875af1158015610148573d6000803e3d6000fd5b505050506040513d601f19601f8201168201806040525081019061016c9190610e58565b6101bd5760405162461bcd60e51b815260206004820152601b60248201527f4661696c6564206368656174636f646520696e766f636174696f6e000000000060448201526064015b60405180910390fd5b50565b6101c8610b62565b600080606060006040518060600160405280602a815260200161128f602a913987876040516020016101fc93929190610e7a565b60405160208183030381529060405290506000610223828a61021d90610f3a565b90610462565b9050600061026360405180604001604052806011815260200170616d6f756e745f63617074757261626c6560781b815250836104f690919063ffffffff16565b61027190633b9aca00610ff7565b905060006102b06040518060400160405280601081526020016f6d657461646174612e6164647265737360801b8152508461061690919063ffffffff16565b905060006102bd82611027565b60601c9050600083136103125760405162461bcd60e51b815260206004820152601760248201527f416d6f756e74206d75737420626520706f73697469766500000000000000000060448201526064016101b4565b61031a61037d565b83828d8d81818080601f016020809104026020016040519081016040528093929190818152602001838380828437600081840152601f19601f82011690508083019250505050505050905090509850985098509850505050505093509350935093565b610385610b62565b61038d61072c565b905090565b60405160016208753960e31b0319815260048101839052602481018290527376dc9aa45aa006a0f63942d8f9f21bd4537972a39063ffbc5638906044016020604051808303816000875af11580156103ee573d6000803e3d6000fd5b505050506040513d601f19601f820116820180604052508101906104129190610e58565b61045e5760405162461bcd60e51b815260206004820152601b60248201527f4661696c6564206368656174636f646520696e766f636174696f6e000000000060448201526064016101b4565b5050565b61048660405180606001604052806060815260200160608152602001606081525090565b600061049484600080610741565b90506104a38160200151610890565b60408101516104b290846109b5565b6104ed5760405162461bcd60e51b815260206004820152600c60248201526b0aaa49840dad2e6dac2e8c6d60a31b60448201526064016101b4565b90505b92915050565b8151516000906105385760405162461bcd60e51b815260206004820152600d60248201526c426f647920697320656d70747960981b60448201526064016101b4565b604080518082018252845181526020808201859052915160009261055d92910161107a565b60408051601f19818403018152919052905060008061059173f4e4fdca9d5d55e64525e314391996a15f7ec60060036110c9565b6001600160a01b0316836040516105a891906110e8565b600060405180830381855afa9150503d80600081146105e3576040519150601f19603f3d011682016040523d82523d6000602084013e6105e8565b606091505b50915091506105f782826109db565b508080602001905181019061060c9190611104565b9695505050505050565b8151516060906106585760405162461bcd60e51b815260206004820152600d60248201526c426f647920697320656d70747960981b60448201526064016101b4565b604080518082018252845181526020808201859052915160009261067d92910161107a565b60408051601f1981840301815291905290506000806106b173f4e4fdca9d5d55e64525e314391996a15f7ec60060026110c9565b6001600160a01b0316836040516106c891906110e8565b600060405180830381855afa9150503d8060008114610703576040519150601f19603f3d011682016040523d82523d6000602084013e610708565b606091505b509150915061071782826109db565b508080602001905181019061060c9190611162565b610734610b62565b61073c610b62565b919050565b61076560405180606001604052806060815260200160608152602001606081525090565b60008061078673f4e4fdca9d5d55e64525e314391996a15f7ec600826110c9565b6001600160a01b03168686866040516020016107a493929190611197565b60408051601f19818403018152908290526107be916110e8565b600060405180830381855afa9150503d80600081146107f9576040519150601f19603f3d011682016040523d82523d6000602084013e6107fe565b606091505b509150915061080d82826109db565b5060008180602001905181019061082491906111dc565b905060405180606001604052808260026004811061084457610844611278565b602002015181526020018260036004811061086157610861611278565b602002015181526020018260006004811061087e5761087e611278565b60200201519052979650505050505050565b6108986109f7565b1561090c576108c0816040518060e0016040528060ae81526020016112b960ae9139906109b5565b6101bd5760405162461bcd60e51b815260206004820152601960248201527f496e76616c6964206e6f74617279207075626c6963206b65790000000000000060448201526064016101b4565b610914610a0f565b1561099b5773565dca92902ea0ca597b5e62df0b47886b6b7d4d5b6001600160a01b0316632505a3bd826040518263ffffffff1660e01b815260040161095a9190610c4b565b602060405180830381865afa158015610977573d6000803e3d6000fd5b505050506040513d601f19601f820116820180604052508101906108c09190610e58565b73c4e4dc291a5c4debe9ff5a3372f3fdd2e42bac8661092f565b6000815183511480156104ed575081805190602001208380519060200120149392505050565b6060826109f0576109eb82610a76565b6104f0565b50806104f0565b6000610a01610a9f565b8061038d575061038d610ab6565b60004660011480610a20575046600a145b80610a2b5750466089145b80610a37575046610144145b80610a435750466101e0145b80610a4f575046612105145b80610a5b57504661a4b1145b80610a6757504661a4ba145b8061038d57505061e708461490565b805115610a865780518082602001fd5b604051630a12f52160e11b815260040160405180910390fd5b600046617a69148061038d57505062049919461490565b60008080610ad973f4e4fdca9d5d55e64525e314391996a15f7ec600601e6110c9565b6001600160a01b0316604051600060405180830381855afa9150503d8060008114610b20576040519150601f19603f3d011682016040523d82523d6000602084013e610b25565b606091505b5091509150811580610b3657508051155b15610b445760009250505090565b600081806020019051810190610b5a9190610e58565b949350505050565b6040518060800160405280610b75610bb5565b8152600060208083018290526040808401839052805160a08101825283815291820183905281018290526060818101839052608082019290925291015290565b60408051606081019091526000815260208101610bd0610bdc565b81526020016000905290565b6040518061010001604052806008906020820280368337509192915050565b60005b83811015610c16578181015183820152602001610bfe565b50506000910152565b60008151808452610c37816020860160208601610bfb565b601f01601f19169290920160200192915050565b6020815260006104ed6020830184610c1f565b600060208284031215610c7057600080fd5b5035919050565b600080600060408486031215610c8c57600080fd5b833567ffffffffffffffff811115610ca357600080fd5b840160208187031215610cb557600080fd5b9250602084013567ffffffffffffffff811115610cd157600080fd5b8401601f81018613610ce257600080fd5b803567ffffffffffffffff811115610cf957600080fd5b866020828401011115610d0b57600080fd5b939660209190910195509293505050565b600281106101bd57634e487b7160e01b600052602160045260246000fd5b805180516001600160e01b031916835260208082015190840160005b6008811015610d75578251825260209283019290910190600101610d56565b50505060400151610d8581610d1c565b61012083015260208181015161014084015260408083015161016085015260609283015180516001600160a01b0316610180860152918201516001600160e01b0319166101a08501528101516101c0840152908101516101e08301526080015161020090910152565b610df88186610d3a565b8361022082015260018060a01b038316610240820152610280610260820152600061060c610280830184610c1f565b61022081016104f08284610d3a565b60008060408385031215610e4957600080fd5b50508035926020909101359150565b600060208284031215610e6a57600080fd5b815180151581146104ed57600080fd5b60008451610e8c818460208901610bfb565b8201838582376000930192835250909392505050565b634e487b7160e01b600052604160045260246000fd5b6040516080810167ffffffffffffffff81118282101715610edb57610edb610ea2565b60405290565b604051601f8201601f1916810167ffffffffffffffff81118282101715610f0a57610f0a610ea2565b604052919050565b600067ffffffffffffffff821115610f2c57610f2c610ea2565b50601f01601f191660200190565b600060208236031215610f4c57600080fd5b6040516020810167ffffffffffffffff81118282101715610f6f57610f6f610ea2565b604052823567ffffffffffffffff811115610f8957600080fd5b830136601f820112610f9a57600080fd5b8035610fad610fa882610f12565b610ee1565b818152366020838501011115610fc257600080fd5b8160208401602083013760009181016020019190915282525092915050565b634e487b7160e01b600052601160045260246000fd5b80820260008212600160ff1b8414161561101357611013610fe1565b81810583148215176104f0576104f0610fe1565b805160208201516bffffffffffffffffffffffff19811691906014821015611073576bffffffffffffffffffffffff196bffffffffffffffffffffffff198360140360031b1b82161692505b5050919050565b60208082526000906060830190830184835b60028110156110be57601f198685030183526110a9848351610c1f565b9350602092830192919091019060010161108c565b509195945050505050565b6001600160a01b0381811683821601908111156104f0576104f0610fe1565b600082516110fa818460208701610bfb565b9190910192915050565b60006020828403121561111657600080fd5b5051919050565b600082601f83011261112e57600080fd5b815161113c610fa882610f12565b81815284602083860101111561115157600080fd5b610b5a826020830160208701610bfb565b60006020828403121561117457600080fd5b815167ffffffffffffffff81111561118b57600080fd5b610b5a8482850161111d565b6060815260008451602060608401526111b36080840182610c1f565b9150506111bf84610d1c565b8360208301526111ce83610d1c565b826040830152949350505050565b6000602082840312156111ee57600080fd5b815167ffffffffffffffff81111561120557600080fd5b8201601f8101841361121657600080fd5b61121e610eb8565b80608083018681111561123057600080fd5b835b8181101561126c57805167ffffffffffffffff81111561125157600080fd5b61125d8982880161111d565b85525060209384019301611232565b50909695505050505050565b634e487b7160e01b600052603260045260246000fdfe68747470733a2f2f6170692e7374726970652e636f6d2f76312f7061796d656e745f696e74656e74732f2d2d2d2d2d424547494e205055424c4943204b45592d2d2d2d2d0a4d465977454159484b6f5a497a6a3043415159464b34454541416f445167414565306a786e424f6261496a37586a673654584c434d3147472f566859353635300a4f72532f6a6763624275666f2f51446646764c2f69727a4976314a536d684769566373434843776f6c684458576367653776324973513d3d0a2d2d2d2d2d454e44205055424c4943204b45592d2d2d2d2d0aa2646970667358221220bf1012545570aaf6ddce1ec6759a401db35decedd3ee46d62e935a92cd6b8a2864736f6c634300081c0033","linkReferences":{}},"methodIdentifiers":{"STRIPE_BASE_URL()":"095e73bc","main((string),string)":"a09d0df3","proof()":"faf924cf","setBlock(uint256)":"87cea3ae","setChain(uint256,uint256)":"ffbc5638"},"id":40}