{"abi":[{"type":"constructor","inputs":[{"name":"_prover","type":"address","internalType":"address"}],"stateMutability":"nonpayable"},{"type":"function","name":"_setTestVerifier","inputs":[{"name":"newVerifier","type":"address","internalType":"contract IProofVerifier"}],"outputs":[],"stateMutability":"nonpayable"},{"type":"function","name":"collateralizedAmounts","inputs":[{"name":"","type":"address","internalType":"address"}],"outputs":[{"name":"","type":"int256","internalType":"int256"}],"stateMutability":"view"},{"type":"function","name":"getCollateralizedAmount","inputs":[{"name":"user","type":"string","internalType":"string"}],"outputs":[{"name":"","type":"int256","internalType":"int256"}],"stateMutability":"view"},{"type":"function","name":"prover","inputs":[],"outputs":[{"name":"","type":"address","internalType":"address"}],"stateMutability":"view"},{"type":"function","name":"usedIntentIds","inputs":[{"name":"","type":"bytes32","internalType":"bytes32"}],"outputs":[{"name":"","type":"bool","internalType":"bool"}],"stateMutability":"view"},{"type":"function","name":"verifier","inputs":[],"outputs":[{"name":"","type":"address","internalType":"contract IProofVerifier"}],"stateMutability":"view"},{"type":"function","name":"verify","inputs":[{"name":"","type":"tuple","internalType":"struct Proof","components":[{"name":"seal","type":"tuple","internalType":"struct Seal","components":[{"name":"verifierSelector","type":"bytes4","internalType":"bytes4"},{"name":"seal","type":"bytes32[8]","internalType":"bytes32[8]"},{"name":"mode","type":"uint8","internalType":"enum ProofMode"}]},{"name":"callGuestId","type":"bytes32","internalType":"bytes32"},{"name":"length","type":"uint256","internalType":"uint256"},{"name":"callAssumptions","type":"tuple","internalType":"struct CallAssumptions","components":[{"name":"proverContractAddress","type":"address","internalType":"address"},{"name":"functionSelector","type":"bytes4","internalType":"bytes4"},{"name":"settleChainId","type":"uint256","internalType":"uint256"},{"name":"settleBlockNumber","type":"uint256","internalType":"uint256"},{"name":"settleBlockHash","type":"bytes32","internalType":"bytes32"}]}]},{"name":"amountCollateralized","type":"int256","internalType":"int256"},{"name":"collateralizedForAddress","type":"address","internalType":"address"},{"name":"usedIntentId","type":"string","internalType":"string"}],"outputs":[],"stateMutability":"nonpayable"},{"type":"event","name":"Collateralized","inputs":[{"name":"user","type":"address","indexed":true,"internalType":"address"},{"name":"amount","type":"int256","indexed":false,"internalType":"int256"},{"name":"intentId","type":"bytes32","indexed":false,"internalType":"bytes32"}],"anonymous":false},{"type":"error","name":"InvalidChainId","inputs":[]}],"bytecode":{"object":"0x60a060405234801561001057600080fd5b50604051613c18380380613c1883398101604081905261002f916103d5565b61003761006f565b600080546001600160a01b039283166001600160a01b0319918216179091553360805260038054939092169216919091179055610454565b6000610079610219565b1561017e576000303060405161008e906103bb565b6001600160a01b03928316815291166020820152604001604051809103906000f0801580156100c1573d6000803e3d6000fd5b506040516384cf84e160e01b81527fada6b7bc9286796356a3df92ddeccec2d40511b62e1a06755d016db5733dbcc960048201529091506001600160a01b038216906384cf84e190602401600060405180830381600087803b15801561012657600080fd5b505af115801561013a573d6000803e3d6000fd5b505050508060405161014b906103c8565b6001600160a01b039091168152602001604051809103906000f080158015610177573d6000803e3d6000fd5b5091505090565b610186610236565b156101a9576000735553cf6ce25e3f80fad2866f6230346159ecd89c5b92915050565b6101b161029d565b15610200576000739e30dc3e49c4d47f982902710616dcc4b6ff7bf5737e231cfc3e3b549633d5ad61c30f07dd4d408ad3738972b6ff413ac04e61e19f07d7f3bd980d0cc3215b949350505050565b604051633d23e4d160e11b815260040160405180910390fd5b6000610223610300565b806102315750610231610317565b905090565b60004660011480610247575046600a145b806102525750466089145b8061025e575046610144145b8061026a5750466101e0145b80610276575046612105145b8061028257504661a4b1145b8061028e57504661a4ba145b8061023157505061e708461490565b60004662aa36a714806102b157504661012c145b806102bd5750466112c1145b806102c957504661e705145b806102d657504662013882145b806102e357504662014a34145b806102f057504662066eee145b8061023157505062aa37dc461490565b600046617a69148061023157505062049919461490565b6000808061033a73f4e4fdca9d5d55e64525e314391996a15f7ec600601e610405565b6001600160a01b0316604051600060405180830381855afa9150503d8060008114610381576040519150601f19603f3d011682016040523d82523d6000602084013e610386565b606091505b509150915081158061039757508051155b156103a55760009250505090565b6000818060200190518101906101f89190610432565b6111ad8061157983390190565b6114f28061272683390190565b6000602082840312156103e757600080fd5b81516001600160a01b03811681146103fe57600080fd5b9392505050565b6001600160a01b0381811683821601908111156101a357634e487b7160e01b600052601160045260246000fd5b60006020828403121561044457600080fd5b815180151581146103fe57600080fd5b60805161110a61046f6000396000610195015261110a6000f3fe608060405234801561001057600080fd5b506004361061007d5760003560e01c806332a8f30f1161005b57806332a8f30f146101135780637e97dcc6146101265780639b8b30c814610139578063b144c3421461014e57600080fd5b806301777b51146100825780632b7ac3f3146100b557806330ea9ed7146100e0575b600080fd5b6100a2610090366004610a9e565b60016020526000908152604090205481565b6040519081526020015b60405180910390f35b6000546100c8906001600160a01b031681565b6040516001600160a01b0390911681526020016100ac565b6101036100ee366004610ac2565b60026020526000908152604090205460ff1681565b60405190151581526020016100ac565b6003546100c8906001600160a01b031681565b6100a2610134366004610b24565b610161565b61014c610147366004610a9e565b61018a565b005b61014c61015c366004610b66565b61038f565b60008061016e8385610be4565b60601c6000908152600160205260409020549150505b92915050565b336001600160a01b037f000000000000000000000000000000000000000000000000000000000000000016146102115760405162461bcd60e51b815260206004820152602160248201527f4f6e6c79206465706c6f7965722063616e206368616e676520766572696669656044820152603960f91b60648201526084015b60405180910390fd5b6102196104e0565b8061022757506102276104fd565b6102995760405162461bcd60e51b815260206004820152603760248201527f4368616e67696e6720766572696669657273206973206f6e6c7920616c6c6f7760448201527f6564206f6e206465766e6574206f7220746573746e65740000000000000000006064820152608401610208565b60006001600160a01b0316816001600160a01b0316633fd66f226040518163ffffffff1660e01b8152600401602060405180830381865afa1580156102e2573d6000803e3d6000fd5b505050506040513d601f19601f820116820180604052508101906103069190610c31565b6001600160a01b03160361036d5760405162461bcd60e51b815260206004820152602860248201527f56657269666965722773207265706f7369746f72792061646472657373206973604482015267081b9bdd081cd95d60c21b6064820152608401610208565b600080546001600160a01b0319166001600160a01b0392909216919091179055565b6003546001600160a01b031663a09d0df360e01b6103ad8282610560565b60006103b98486610c4e565b60008181526002602052604090205490915060ff16156104145760405162461bcd60e51b8152602060048201526016602482015275125b9d195b9d08125108185b1c9958591e481d5cd95960521b6044820152606401610208565b6001600160a01b038616600090815260016020526040812054900361044d576001600160a01b0386166000908152600160205260408120555b6000818152600260209081526040808320805460ff191660019081179091556001600160a01b038a1684529091528120805489929061048d908490610c82565b909155505060408051888152602081018390526001600160a01b038816917f275464900fbb30d36ad7c7ec8075db0e27d640e4869035c3be4e7b7174cbea2f910160405180910390a25050505050505050565b60006104ea6105db565b806104f857506104f86105f2565b905090565b60004662aa36a7148061051157504661012c145b8061051d5750466112c1145b8061052957504661e705145b8061053657504662013882145b8061054357504662014a34145b8061055057504662066eee145b806104f857505062aa37dc461490565b60008061056b61069e565b60005460405163c4fa74e560e01b81529294509092506001600160a01b03169063c4fa74e5906105a5908590859089908990600401610d73565b60006040518083038186803b1580156105bd57600080fd5b505afa1580156105d1573d6000803e3d6000fd5b5050505050505050565b600046617a6914806104f857505062049919461490565b6000808061061573f4e4fdca9d5d55e64525e314391996a15f7ec600601e610db3565b6001600160a01b0316604051600060405180830381855afa9150503d806000811461065c576040519150601f19603f3d011682016040523d82523d6000602084013e610661565b606091505b509150915081158061067257508051155b156106805760009250505090565b6000818060200190518101906106969190610dd2565b949350505050565b6106a66109ed565b6000806106b63660048184610df4565b8101906106c39190610f49565b90506000602080806106d58180611023565b6106df9190611023565b6106e99190611023565b6106f39190611023565b6020808061070361010082611023565b61070d9190611023565b6107179190611023565b6107219190611023565b61072c906004611023565b6107369190611023565b90506000602080806107488180611023565b6107529190611023565b61075c9190611023565b6107669190611023565b602080806107748180611023565b61077e9190611023565b6107889190611023565b6107929190611023565b602080806107a261010082611023565b6107ac9190611023565b6107b69190611023565b6107c09190611023565b6107ca9190611023565b84604001516107d99190611036565b6107e39190611036565b905060006107f18284611023565b9050600080366020808061080761010082611023565b6108119190611023565b61081b9190611023565b6108259190611023565b610830906004611023565b906020808061083f8180611023565b6108499190611023565b6108539190611023565b61085d9190611023565b6020808061086d61010082611023565b6108779190611023565b6108819190611023565b61088b9190611023565b610896906004611023565b6108a09190611023565b926108ad93929190610df4565b8080601f01602080910402602001604051908101604052809392919081815260200183838082843760009201829052509394506108f292508591508790503684610df4565b8080601f016020809104026020016040519081016040528093929190818152602001838380828437600092018290525093945085925061093491506109d89050565b6040516020016109449190611049565b60408051601f198184030181529082905261096492918590602001611088565b6040516020818303038152906040529050600060028260405161098791906110af565b602060405180830381855afa1580156109a4573d6000803e3d6000fd5b5050506040513d601f19601f820116820180604052508101906109c791906110bb565b979a97995096975050505050505050565b6109e06109ed565b6109e86109ed565b919050565b6040518060800160405280610a00610a40565b8152600060208083018290526040808401839052805160a08101825283815291820183905281018290526060818101839052608082019290925291015290565b60408051606081019091526000815260208101610a5b610a67565b81526020016000905290565b6040518061010001604052806008906020820280368337509192915050565b6001600160a01b0381168114610a9b57600080fd5b50565b600060208284031215610ab057600080fd5b8135610abb81610a86565b9392505050565b600060208284031215610ad457600080fd5b5035919050565b60008083601f840112610aed57600080fd5b50813567ffffffffffffffff811115610b0557600080fd5b602083019150836020828501011115610b1d57600080fd5b9250929050565b60008060208385031215610b3757600080fd5b823567ffffffffffffffff811115610b4e57600080fd5b610b5a85828601610adb565b90969095509350505050565b6000806000806000858703610280811215610b8057600080fd5b610220811215610b8f57600080fd5b508594506102208601359350610240860135610baa81610a86565b925061026086013567ffffffffffffffff811115610bc757600080fd5b610bd388828901610adb565b969995985093965092949392505050565b80356bffffffffffffffffffffffff198116906014841015610c2a576bffffffffffffffffffffffff196bffffffffffffffffffffffff198560140360031b1b82161691505b5092915050565b600060208284031215610c4357600080fd5b8151610abb81610a86565b8035602083101561018457600019602084900360031b1b1692915050565b634e487b7160e01b600052601160045260246000fd5b8082018281126000831280158216821582161715610ca257610ca2610c6c565b505092915050565b805180516001600160e01b031916835260208082015190840160005b6008811015610ce5578251825260209283019290910190600101610cc6565b5050506040015160028110610d0a57634e487b7160e01b600052602160045260246000fd5b61012083015260208181015161014084015260408083015161016085015260609283015180516001600160a01b0316610180860152918201516001600160e01b0319166101a08501528101516101c0840152908101516101e08301526080015161020090910152565b6102808101610d828287610caa565b6102208201949094526001600160a01b03929092166102408301526001600160e01b03191661026090910152919050565b6001600160a01b03818116838216019081111561018457610184610c6c565b600060208284031215610de457600080fd5b81518015158114610abb57600080fd5b60008085851115610e0457600080fd5b83861115610e1157600080fd5b5050820193919092039150565b634e487b7160e01b600052604160045260246000fd5b6040516080810167ffffffffffffffff81118282101715610e5757610e57610e1e565b60405290565b6040516060810167ffffffffffffffff81118282101715610e5757610e57610e1e565b604051610100810167ffffffffffffffff81118282101715610e5757610e57610e1e565b80356001600160e01b0319811681146109e857600080fd5b8035600281106109e857600080fd5b600060a08284031215610edd57600080fd5b60405160a0810167ffffffffffffffff81118282101715610f0057610f00610e1e565b6040529050808235610f1181610a86565b8152610f1f60208401610ea4565b60208201526040838101359082015260608084013590820152608092830135920191909152919050565b600081830361022081128015610f5e57600080fd5b506000610f69610e34565b610140831215610f77578182fd5b610f7f610e5d565b9250610f8a85610ea4565b835285603f860112610f9a578182fd5b610fa2610e80565b80610120870188811115610fb4578485fd5b602088015b81811015610fd1578035845260209384019301610fb9565b50816020870152610fe181610ebc565b6040878101919091529584525050506101408501356020820152610160850135928101839052611015866101808701610ecb565b606082015295945050505050565b8082018082111561018457610184610c6c565b8181038181111561018457610184610c6c565b61022081016101848284610caa565b6000815160005b81811015611079576020818501810151868301520161105f565b50600093019283525090919050565b60006110a66110a061109a8488611058565b86611058565b84611058565b95945050505050565b6000610abb8284611058565b6000602082840312156110cd57600080fd5b505191905056fea26469706673582212205324a32f8ae146b1a181129372fbe84e4153ef77d56731d2ff897eff440e888c64736f6c634300081c0033608060405234801561001057600080fd5b506040516111ad3803806111ad83398101604081905261002f916101c2565b61003a60008361006d565b506100657fb19546dff01e856fb3f010c267a7b1c60363cf8a4664e21cc89c26224620214e8261006d565b5050506101f5565b60008061007a84846100a5565b9050801561009c57600084815260016020526040902061009a908461014f565b505b90505b92915050565b6000828152602081815260408083206001600160a01b038516845290915281205460ff16610147576000838152602081815260408083206001600160a01b03861684529091529020805460ff191660011790556100ff3390565b6001600160a01b0316826001600160a01b0316847f2f8788117e7eff1d82e926ec794901d17c78024a50270940304540a733656f0d60405160405180910390a450600161009f565b50600061009f565b600061009c836001600160a01b03841660008181526001830160205260408120546101475750815460018181018455600084815260208082209093018490558454848252828601909352604090209190915561009f565b80516001600160a01b03811681146101bd57600080fd5b919050565b600080604083850312156101d557600080fd5b6101de836101a6565b91506101ec602084016101a6565b90509250929050565b610fa9806102046000396000f3fe608060405234801561001057600080fd5b50600436106101375760003560e01c8063853b5d19116100b8578063c5df91b51161007c578063c5df91b5146102db578063ca0d5358146102ee578063ca15c87314610301578063d547741f14610314578063e58378bb14610327578063f2fde38b1461033c57600080fd5b8063853b5d191461026f5780639010d07c1461028257806391d14854146102ad578063a217fddf146102c0578063ada8f919146102c857600080fd5b80632f2ff15d116100ff5780632f2ff15d146101f857806336568abe1461020b578063755e936f1461021e57806381e4c9a31461023157806384cf84e11461025c57600080fd5b806301ffc9a71461013c5780631af6c43114610164578063248a9ca3146101875780632505a3bd146101b85780632ad82eea146101e3575b600080fd5b61014f61014a366004610d04565b61034f565b60405190151581526020015b60405180910390f35b61014f610172366004610d2e565b60009081526003602052604090205460ff1690565b6101aa610195366004610d2e565b60009081526020819052604090206001015490565b60405190815260200161015b565b61014f6101c6366004610dd7565b805160209182012060009081526004909152604090205460ff1690565b6101f66101f1366004610dd7565b61037a565b005b6101f6610206366004610e44565b610451565b6101f6610219366004610e44565b61047c565b6101f661022c366004610dd7565b6104b4565b61014f61023f366004610dd7565b805160209182012060009081526002909152604090205460ff1690565b6101f661026a366004610d2e565b61057a565b6101f661027d366004610dd7565b610648565b610295610290366004610e70565b61070d565b6040516001600160a01b03909116815260200161015b565b61014f6102bb366004610e44565b61072c565b6101aa600081565b6101f66102d6366004610e92565b610755565b6101f66102e9366004610d2e565b61076e565b6101f66102fc366004610dd7565b610836565b6101aa61030f366004610d2e565b6108fc565b6101f6610322366004610e44565b610913565b6101aa600080516020610f5483398151915281565b6101f661034a366004610e92565b610938565b60006001600160e01b03198216635a05180f60e01b1480610374575061037482610989565b92915050565b600080516020610f54833981519152610392816109be565b81516020808401919091206000818152600490925260409091205460ff16156103f95760405162461bcd60e51b815260206004820152601460248201527312d95e481a5cc8185b1c9958591e481d985b1a5960621b60448201526064015b60405180910390fd5b60008181526004602052604090819020805460ff191660011790555133907fcbfa55581c230aeb174d969838d927cdd297755dfb967a33134312f1377ee71d90610444908690610ef3565b60405180910390a2505050565b60008281526020819052604090206001015461046c816109be565b61047683836109c8565b50505050565b6001600160a01b03811633146104a55760405163334bd91960e11b815260040160405180910390fd5b6104af82826109fd565b505050565b600080516020610f548339815191526104cc816109be565b81516020808401919091206000818152600290925260409091205460ff166105325760405162461bcd60e51b815260206004820152601960248201527843616e6e6f74207265766f6b6520696e76616c6964206b657960381b60448201526064016103f0565b60008181526002602052604090819020805460ff191690555133907f66e43f8252a3257fe010a4fd6ae50f57624762cc64a6eceadb04b18cfdefac7d90610444908690610ef3565b600080516020610f54833981519152610592816109be565b60008281526003602052604090205460ff16156105f15760405162461bcd60e51b815260206004820152601c60248201527f496d616765494420697320616c726561647920737570706f727465640000000060448201526064016103f0565b60008281526003602052604090819020805460ff19166001179055517f010120d82c0c66b257c0ea628d405b1d3c2d37bb8dd9141f6c5c12cb0375c5729061063c9084815260200190565b60405180910390a15050565b600080516020610f54833981519152610660816109be565b81516020808401919091206000818152600290925260409091205460ff16156106c25760405162461bcd60e51b815260206004820152601460248201527312d95e481a5cc8185b1c9958591e481d985b1a5960621b60448201526064016103f0565b60008181526002602052604090819020805460ff191660011790555133907f0a249d4766726d36cb6d6ac22cf998dc9fc02bb4ff9fda73ec1e3061c8a1db0990610444908690610ef3565b60008281526001602052604081206107259083610a2a565b9392505050565b6000918252602082815260408084206001600160a01b0393909316845291905290205460ff1690565b610760600082610451565b61076b60003361047c565b50565b600080516020610f54833981519152610786816109be565b60008281526003602052604090205460ff166107ee5760405162461bcd60e51b815260206004820152602160248201527f43616e6e6f74207265766f6b6520756e737570706f7274656420496d616765496044820152601160fa1b60648201526084016103f0565b60008281526003602052604090819020805460ff19169055517f4072861add20da436ef0a8274b90d102aea17b603f972cc8196d51f1a5d561799061063c9084815260200190565b600080516020610f5483398151915261084e816109be565b81516020808401919091206000818152600490925260409091205460ff166108b45760405162461bcd60e51b815260206004820152601960248201527843616e6e6f74207265766f6b6520696e76616c6964206b657960381b60448201526064016103f0565b60008181526004602052604090819020805460ff191690555133907f69c40cdda8ad6e074bf320a4a76804a6652eb5231bda91b690dcb98010b2707990610444908690610ef3565b600081815260016020526040812061037490610a36565b60008281526020819052604090206001015461092e816109be565b61047683836109fd565b6000610953600080516020610f54833981519152600061070d565b905061096d600080516020610f5483398151915282610913565b610985600080516020610f5483398151915283610451565b5050565b60006001600160e01b03198216637965db0b60e01b148061037457506301ffc9a760e01b6001600160e01b0319831614610374565b61076b8133610a40565b6000806109d58484610a79565b905080156107255760008481526001602052604090206109f59084610b0b565b509392505050565b600080610a0a8484610b20565b905080156107255760008481526001602052604090206109f59084610b8b565b60006107258383610ba0565b6000610374825490565b610a4a828261072c565b6109855760405163e2517d3f60e01b81526001600160a01b0382166004820152602481018390526044016103f0565b6000610a85838361072c565b610b03576000838152602081815260408083206001600160a01b03861684529091529020805460ff19166001179055610abb3390565b6001600160a01b0316826001600160a01b0316847f2f8788117e7eff1d82e926ec794901d17c78024a50270940304540a733656f0d60405160405180910390a4506001610374565b506000610374565b6000610725836001600160a01b038416610bca565b6000610b2c838361072c565b15610b03576000838152602081815260408083206001600160a01b0386168085529252808320805460ff1916905551339286917ff6391f5c32d9c69d2a47ea670b442974b53935d1edc7fd64eb21e047a839171b9190a4506001610374565b6000610725836001600160a01b038416610c11565b6000826000018281548110610bb757610bb7610f06565b9060005260206000200154905092915050565b6000818152600183016020526040812054610b0357508154600181810184556000848152602080822090930184905584548482528286019093526040902091909155610374565b60008181526001830160205260408120548015610cfa576000610c35600183610f1c565b8554909150600090610c4990600190610f1c565b9050808214610cae576000866000018281548110610c6957610c69610f06565b9060005260206000200154905080876000018481548110610c8c57610c8c610f06565b6000918252602080832090910192909255918252600188019052604090208390555b8554869080610cbf57610cbf610f3d565b600190038181906000526020600020016000905590558560010160008681526020019081526020016000206000905560019350505050610374565b6000915050610374565b600060208284031215610d1657600080fd5b81356001600160e01b03198116811461072557600080fd5b600060208284031215610d4057600080fd5b5035919050565b634e487b7160e01b600052604160045260246000fd5b60008067ffffffffffffffff841115610d7857610d78610d47565b50604051601f19601f85018116603f0116810181811067ffffffffffffffff82111715610da757610da7610d47565b604052838152905080828401851015610dbf57600080fd5b83836020830137600060208583010152509392505050565b600060208284031215610de957600080fd5b813567ffffffffffffffff811115610e0057600080fd5b8201601f81018413610e1157600080fd5b610e2084823560208401610d5d565b949350505050565b80356001600160a01b0381168114610e3f57600080fd5b919050565b60008060408385031215610e5757600080fd5b82359150610e6760208401610e28565b90509250929050565b60008060408385031215610e8357600080fd5b50508035926020909101359150565b600060208284031215610ea457600080fd5b61072582610e28565b6000815180845260005b81811015610ed357602081850181015186830182015201610eb7565b506000602082860101526020601f19601f83011685010191505092915050565b6020815260006107256020830184610ead565b634e487b7160e01b600052603260045260246000fd5b8181038181111561037457634e487b7160e01b600052601160045260246000fd5b634e487b7160e01b600052603160045260246000fdfeb19546dff01e856fb3f010c267a7b1c60363cf8a4664e21cc89c26224620214ea2646970667358221220be51f83d1ac06580f292b719607f51a0f3dd6511609f86a4731234a6c65ba26e64736f6c634300081c003360e060405234801561001057600080fd5b506040516114f23803806114f283398101604081905261002f91610132565b6001600160a01b03811660c0526100446100bc565b1561006257604051633d23e4d160e11b815260040160405180910390fd5b60405163deafbeef60e01b9061007790610125565b6001600160e01b03199091168152602001604051809103906000f0801580156100a4573d6000803e3d6000fd5b506001600160a01b031660a052506001608052610162565b600046600114806100cd575046600a145b806100d85750466089145b806100e4575046610144145b806100f05750466101e0145b806100fc575046612105145b8061010857504661a4b1145b8061011457504661a4ba145b8061012057504661e708145b905090565b61090e80610be483390190565b60006020828403121561014457600080fd5b81516001600160a01b038116811461015b57600080fd5b9392505050565b60805160a05160c051610a3a6101aa6000396000818160a20152818161011401526104e50152600081816061015261017001526000818160cb01526102090152610a3a6000f3fe608060405234801561001057600080fd5b50600436106100575760003560e01c806308c84e701461005c5780633fd66f22146100a05780639a44ea84146100c6578063c4fa74e5146100fa578063f4cbae941461010f575b600080fd5b6100837f000000000000000000000000000000000000000000000000000000000000000081565b6040516001600160a01b0390911681526020015b60405180910390f35b7f0000000000000000000000000000000000000000000000000000000000000000610083565b6100ed7f000000000000000000000000000000000000000000000000000000000000000081565b604051610097919061064b565b61010d6101083660046106a2565b610136565b005b6100837f000000000000000000000000000000000000000000000000000000000000000081565b61014d61014836869003860186610841565b610207565b61016661015f36869003860186610841565b838361029a565b6001600160a01b037f00000000000000000000000000000000000000000000000000000000000000001663ab750e756101ac6101a7368890038801886108f5565b6105a9565b866101400135866040518463ffffffff1660e01b81526004016101d193929190610919565b60006040518083038186803b1580156101e957600080fd5b505afa1580156101fd573d6000803e3d6000fd5b5050505050505050565b7f0000000000000000000000000000000000000000000000000000000000000000600181111561023957610239610635565b815160400151600181111561025057610250610635565b146102975760405162461bcd60e51b8152602060048201526012602482015271496e76616c69642070726f6f66206d6f646560701b60448201526064015b60405180910390fd5b50565b816001600160a01b03168360600151600001516001600160a01b0316146102f45760405162461bcd60e51b815260206004820152600e60248201526d24b73b30b634b210383937bb32b960911b604482015260640161028e565b806001600160e01b0319168360600151602001516001600160e01b031916146103525760405162461bcd60e51b815260206004820152601060248201526f24b73b30b634b21039b2b632b1ba37b960811b604482015260640161028e565b468360600151604001511461039c5760405162461bcd60e51b815260206004820152601060248201526f125b9d985b1a590818da185a5b881a5960821b604482015260640161028e565b43836060015160600151106104035760405162461bcd60e51b815260206004820152602760248201527f496e76616c696420626c6f636b206e756d6265723a20626c6f636b2066726f6d6044820152662066757475726560c81b606482015260840161028e565b4361010084606001516060015161041a9190610975565b10156104745760405162461bcd60e51b815260206004820152602360248201527f496e76616c696420626c6f636b206e756d6265723a20626c6f636b20746f6f206044820152621bdb1960ea1b606482015260840161028e565b82606001516060015140836060015160800151146104c95760405162461bcd60e51b8152602060048201526012602482015271092dcecc2d8d2c840c4d8dec6d640d0c2e6d60731b604482015260640161028e565b6020830151604051631af6c43160e01b815260048101919091527f00000000000000000000000000000000000000000000000000000000000000006001600160a01b031690631af6c43190602401602060405180830381865afa158015610534573d6000803e3d6000fd5b505050506040513d601f19601f82011682018060405250810190610558919061099c565b6105a45760405162461bcd60e51b815260206004820152601760248201527f556e737570706f727465642043616c6c47756573744964000000000000000000604482015260640161028e565b505050565b60606001826040015160018111156105c3576105c3610635565b036106045750602081810151519151604080516001600160e01b03199092169282019290925260248082019390935281518082039093018352604401905290565b815160208084015160405161061a9392016109be565b6040516020818303038152906040529050919050565b919050565b634e487b7160e01b600052602160045260246000fd5b602081016002831061066d57634e487b7160e01b600052602160045260246000fd5b91905290565b80356001600160a01b038116811461063057600080fd5b80356001600160e01b03198116811461063057600080fd5b6000806000808486036102808112156106ba57600080fd5b6102208112156106c957600080fd5b5084935061022084013592506106e26102408501610673565b91506106f1610260860161068a565b905092959194509250565b634e487b7160e01b600052604160045260246000fd5b6040516060810167ffffffffffffffff81118282101715610735576107356106fc565b60405290565b604051610100810167ffffffffffffffff81118282101715610735576107356106fc565b6040516080810167ffffffffffffffff81118282101715610735576107356106fc565b60405160a0810167ffffffffffffffff81118282101715610735576107356106fc565b80356002811061063057600080fd5b600061014082840312156107c757600080fd5b6107cf610712565b90506107da8261068a565b815282603f8301126107eb57600080fd5b6107f361073b565b8061012084018581111561080657600080fd5b602085015b8181101561082357803584526020938401930161080b565b50816020850152610833816107a5565b604085015250505092915050565b60008183036102208112801561085657600080fd5b50600061086161075f565b61086b86866107b4565b81526101408501356020820152610160850135604082015260a061017f1984011215610895578182fd5b61089d610782565b92506108ac6101808601610673565b83526108bb6101a0860161068a565b60208401526101c085013560408401526101e085013560608085019190915261020090950135608084015293840191909152509092915050565b6000610140828403121561090857600080fd5b61091283836107b4565b9392505050565b606081526000845180606084015260005b81811015610947576020818801810151608086840101520161092a565b506000608082850101526080601f19601f830116840101915050836020830152826040830152949350505050565b8082018082111561099657634e487b7160e01b600052601160045260246000fd5b92915050565b6000602082840312156109ae57600080fd5b8151801515811461091257600080fd5b6001600160e01b03198316815260006004820183825b60088110156109f35781518352602092830192909101906001016109d4565b50505061010482019050939250505056fea2646970667358221220fd2c0523a6233b9474b3758ee0dd1f3fdafd144cd70f077b8c51251061c008e964736f6c634300081c003360a060405234801561001057600080fd5b5060405161090e38038061090e83398101604081905261002f91610041565b6001600160e01b031916608052610072565b60006020828403121561005357600080fd5b81516001600160e01b03198116811461006b57600080fd5b9392505050565b60805161086e6100a06000396000818160610152818160ee015281816101fa015261025f015261086e6000f3fe608060405234801561001057600080fd5b50600436106100575760003560e01c8063053c238d1461005c5780631599ead5146100a15780633a115bb1146100b657806366cf0e4b14610149578063ab750e751461015c575b600080fd5b6100837f000000000000000000000000000000000000000000000000000000000000000081565b6040516001600160e01b031990911681526020015b60405180910390f35b6100b46100af3660046105cc565b61016f565b005b61013c6100c4366004610607565b604080518082019091526060815260006020820152604080518082019091526001600160e01b03197f000000000000000000000000000000000000000000000000000000000000000016606082015260648101839052806084810160408051601f198184030181529190528152602001929092525090565b6040516100989190610644565b61013c61015736600461068a565b610189565b6100b461016a3660046106ac565b6101ba565b61018661017c828061072d565b83602001356101d7565b50565b6040805180820190915260608152600060208201526101b36100c46101ae85856102fc565b61038a565b9392505050565b6101d184846101cc6101ae86866102fc565b6101d7565b50505050565b6101e560046000848661077b565b6101ee916107a5565b6001600160e01b0319167f00000000000000000000000000000000000000000000000000000000000000006001600160e01b031916146102925761023660046000848661077b565b61023f916107a5565b604051632e2ce35360e21b81526001600160e01b031991821660048201527f0000000000000000000000000000000000000000000000000000000000000000909116602482015260440160405180910390fd5b60408051602081018390520160408051601f1981840301815291905280516020909101206102c3836004818761077b565b6040516102d19291906107dd565b6040518091039020146102f75760405163439cc0cd60e01b815260040160405180910390fd5b505050565b610304610587565b6040805160a0810182528481527fa3acc27117418996340b84e5a90f3ef4c49d22c79e44aad822ec9c313e1eb8e260208201528151808301835290918201908060008152602001600060ff1681525081526020016000801b815260200161038160405180604001604052808681526020016000801b8152506104ef565b90529392505050565b60006002806040516103b4907172697363302e52656365697074436c61696d60701b815260120190565b602060405180830381855afa1580156103d1573d6000803e3d6000fd5b5050506040513d601f19601f820116820180604052508101906103f49190610803565b6060840151845160208601516080870151604088015151601890600281111561041f5761041f6107ed565b60408a810151602090810151825191820199909952908101969096526060860194909452608085019290925260a084015263ffffffff909116901b60e01b6001600160e01b03191660c082015260f89190911b6001600160f81b03191660c4820152600160fa1b60c882015260ca015b60408051601f19818403018152908290526104a99161081c565b602060405180830381855afa1580156104c6573d6000803e3d6000fd5b5050506040513d601f19601f820116820180604052508101906104e99190610803565b92915050565b6000600280604051610513906b1c9a5cd8cc0b93dd5d1c1d5d60a21b8152600c0190565b602060405180830381855afa158015610530573d6000803e3d6000fd5b5050506040513d601f19601f820116820180604052508101906105539190610803565b83516020808601516040805192830194909452928101919091526060810191909152600160f91b608082015260820161048f565b6040805160a081018252600080825260208201529081016105b8604080518082019091526000808252602082015290565b815260006020820181905260409091015290565b6000602082840312156105de57600080fd5b813567ffffffffffffffff8111156105f557600080fd5b8201604081850312156101b357600080fd5b60006020828403121561061957600080fd5b5035919050565b60005b8381101561063b578181015183820152602001610623565b50506000910152565b602081526000825160406020840152805180606085015261066c816080860160208501610620565b60209490940151604084015250506080601f909201601f1916010190565b6000806040838503121561069d57600080fd5b50508035926020909101359150565b600080600080606085870312156106c257600080fd5b843567ffffffffffffffff8111156106d957600080fd5b8501601f810187136106ea57600080fd5b803567ffffffffffffffff81111561070157600080fd5b87602082840101111561071357600080fd5b602091820198909750908601359560400135945092505050565b6000808335601e1984360301811261074457600080fd5b83018035915067ffffffffffffffff82111561075f57600080fd5b60200191503681900382131561077457600080fd5b9250929050565b6000808585111561078b57600080fd5b8386111561079857600080fd5b5050820193919092039150565b80356001600160e01b031981169060048410156107d6576001600160e01b0319600485900360031b81901b82161691505b5092915050565b8183823760009101908152919050565b634e487b7160e01b600052602160045260246000fd5b60006020828403121561081557600080fd5b5051919050565b6000825161082e818460208701610620565b919091019291505056fea26469706673582212203480ca180ba5920f6712482ab836917e49dd85d797e27809fe1057f053a1591564736f6c634300081c0033","linkReferences":{}},"methodIdentifiers":{"_setTestVerifier(address)":"9b8b30c8","collateralizedAmounts(address)":"01777b51","getCollateralizedAmount(string)":"7e97dcc6","prover()":"32a8f30f","usedIntentIds(bytes32)":"30ea9ed7","verifier()":"2b7ac3f3","verify(((bytes4,bytes32[8],uint8),bytes32,uint256,(address,bytes4,uint256,uint256,bytes32)),int256,address,string)":"b144c342"},"id":41}